{
  "contractName": "FactoryLogic",
  "abi": [
    {
      "constant": true,
      "inputs": [],
      "name": "factoryStorageContract",
      "outputs": [
        {
          "name": "",
          "type": "address"
        }
      ],
      "payable": false,
      "stateMutability": "view",
      "type": "function"
    },
    {
      "constant": true,
      "inputs": [],
      "name": "owner",
      "outputs": [
        {
          "name": "",
          "type": "address"
        }
      ],
      "payable": false,
      "stateMutability": "view",
      "type": "function"
    },
    {
      "inputs": [
        {
          "name": "factoryStorageContractAddress",
          "type": "address"
        }
      ],
      "payable": false,
      "stateMutability": "nonpayable",
      "type": "constructor"
    }
  ],
  "bytecode": "0x608060405234801561001057600080fd5b506040516020806102188339810180604052602081101561003057600080fd5b8101908080519060200190929190505050336000806101000a81548173ffffffffffffffffffffffffffffffffffffffff021916908373ffffffffffffffffffffffffffffffffffffffff16021790555080600160006101000a81548173ffffffffffffffffffffffffffffffffffffffff021916908373ffffffffffffffffffffffffffffffffffffffff16021790555050610146806100d26000396000f3fe608060405234801561001057600080fd5b50600436106100365760003560e01c80638d7620191461003b5780638da5cb5b14610085575b600080fd5b6100436100cf565b604051808273ffffffffffffffffffffffffffffffffffffffff1673ffffffffffffffffffffffffffffffffffffffff16815260200191505060405180910390f35b61008d6100f5565b604051808273ffffffffffffffffffffffffffffffffffffffff1673ffffffffffffffffffffffffffffffffffffffff16815260200191505060405180910390f35b600160009054906101000a900473ffffffffffffffffffffffffffffffffffffffff1681565b6000809054906101000a900473ffffffffffffffffffffffffffffffffffffffff168156fea165627a7a723058206ffe466ebae596cab5b48dd1e1f6919c94856b7af89d0b509d46267c20f392e40029",
  "source": "pragma solidity ^0.5.8;\n//import {positionContract} from \"./positionContract.sol\";\n//import {CErc20, ComptrollerInterface, CToken} from \"./CERC20.sol\";\n//import {CEther} from \"./CEther.sol\";\n//import {UniswapExchangeInterface} from \"./uniswap.sol\";\n//import {ERC20Interface} from \"./ERC20.sol\";\nimport {FactoryStorage} from \"./FactoryStorage.sol\";\n\ncontract FactoryLogic {\n//    mapping (uint => address) public tokenAddresses;\n//    mapping (uint => address) public ctokenAddresses;\n//    mapping (uint => address) public tokenExchangeAddresses;\n//\n//     userAddr => shortRepAddr\n//    mapping (address => address) public REP;\n//    mapping (address => address) public ZRX;\n\n    address public owner;\n\n    FactoryStorage public factoryStorageContract;\n\n    //TODO: change the constructor for future versions.\n    constructor(address factoryStorageContractAddress) public {\n        owner = msg.sender;\n        factoryStorageContract = FactoryStorage(factoryStorageContractAddress);\n    }\n    \n//    function openShortERC20(string token) public {\n//        //TODO: should be require right not if statement so there's no wasted gas!\n//        //(get the propper mapping!)\n//        mapping (address => address) REP;\n//        REP = factoryStorageContract.REP;\n//        if(REP[msg.sender] == address(0x0)) {\n//            positionContract s = new positionContract(\n//                msg.sender,\n//                \"REP\",\n//                factoryStorageContract.tokenAddresses(0),\n//                factoryStorageContract.ctokenAddresses(0),\n//                factoryStorageContract.tokenExchangeAddresses[0],\n//                factoryStorageContract.tokenAddresses[3],\n//                factoryStorageContract.ctokenAddresses[3],\n//                factoryStorageContract.tokenExchangeAddresses[3],\n//                \"s\"\n//            );\n//            REP[msg.sender] = address(s);\n//        }\n//    }\n//\n//    function openShortETH() public {\n//        if(ETH[msg.sender] == address(0x0)) {\n//            positionContract s = new positionContract(msg.sender, \"ZRX\", tokenAddresses[0], ctokenAddresses[0], tokenExchangeAddresses[0], tokenAddresses[2],  ctokenAddresses[2], tokenExchangeAddresses[2], \"s\");\n//            ETH[msg.sender] = address(s);\n//        }\n//    }\n//\n//    function openLongERC20(string token) public {\n//        if(REP[msg.sender] == address(0x0)) {\n//            positionContract s = new positionContract(msg.sender, \"REP\", tokenAddresses[3], ctokenAddresses[3], tokenExchangeAddresses[3], tokenAddresses[0],  ctokenAddresses[0], tokenExchangeAddresses[0], \"l\");\n//            REP[msg.sender] = address(s);\n//        }\n//    }\n//\n//    function openLongETH(string token) public {\n//        if(ZRX[msg.sender] == address(0x0)) {\n//            positionContract s = new positionContract(msg.sender, \"ZRX\", tokenAddresses[2], ctokenAddresses[2], tokenExchangeAddresses[2], tokenAddresses[0],  ctokenAddresses[0], tokenExchangeAddresses[0], \"l\");\n//            ZRX[msg.sender] = address(s);\n//        }\n//    }\n}",
  "sourcePath": "/Users/zubinkoticha/WebstormProjects/Truffled/contracts/FactoryLogic.sol",
  "compiler": {
    "name": "solc",
    "version": "0.5.8+commit.23d335f2.Emscripten.clang"
  },
  "schemaVersion": "3.0.10",
  "updatedAt": "2019-05-31T05:59:52.737Z",
  "devdoc": {
    "methods": {}
  },
  "userdoc": {
    "methods": {}
  }
}