{
  "contractName": "FactoryStorage",
  "abi": [
    {
      "constant": true,
      "inputs": [
        {
          "name": "",
          "type": "uint256"
        }
      ],
      "name": "ownerAddresses",
      "outputs": [
        {
          "name": "",
          "type": "address"
        }
      ],
      "payable": false,
      "stateMutability": "view",
      "type": "function"
    },
    {
      "inputs": [
        {
          "name": "owner1",
          "type": "address"
        },
        {
          "name": "owner2",
          "type": "address"
        }
      ],
      "payable": false,
      "stateMutability": "nonpayable",
      "type": "constructor"
    }
  ],
  "bytecode": "0x608060405234801561001057600080fd5b5060405160408061023a8339810180604052604081101561003057600080fd5b810190808051906020019092919080519060200190929190505050336000806003811061005957fe5b0160006101000a81548173ffffffffffffffffffffffffffffffffffffffff021916908373ffffffffffffffffffffffffffffffffffffffff1602179055508160006001600381106100a757fe5b0160006101000a81548173ffffffffffffffffffffffffffffffffffffffff021916908373ffffffffffffffffffffffffffffffffffffffff1602179055508060006002600381106100f557fe5b0160006101000a81548173ffffffffffffffffffffffffffffffffffffffff021916908373ffffffffffffffffffffffffffffffffffffffff160217905550505060f6806101446000396000f3fe6080604052348015600f57600080fd5b506004361060285760003560e01c80630f310b1714602d575b600080fd5b605660048036036020811015604157600080fd5b81019080803590602001909291905050506098565b604051808273ffffffffffffffffffffffffffffffffffffffff1673ffffffffffffffffffffffffffffffffffffffff16815260200191505060405180910390f35b6000816003811060a457fe5b016000915054906101000a900473ffffffffffffffffffffffffffffffffffffffff168156fea165627a7a72305820068361b213f32b7821e06226f10faca50c974928b53f61ebbf005bcf3100f80f0029",
  "source": "pragma solidity ^0.5.8;\n\ncontract FactoryStorage {\n\n////    struct Trade? {\n////        address exchangeContract?;\n////        address xyz;\n////    }\n////TODO: think about - using SafeMath for uint;\n////TODO: add events\n////uint256 public constant DECIMALS = 18;\n//\n//    address public factoryLogicAddress;\n//\n//    //TODO: is the following how you declare arrays properly?\n    address[3] public ownerAddresses;\n//\n//    address[] public userAddresses;\n//    address[] public tokenAddresses;\n//    //TODO: figure out camelcase for the following\n//    address[] public ctokenAddresses;\n//    address[] public exchangeAddresses;\n\n    constructor(address owner1, address owner2) public {\n        ownerAddresses[0] = msg.sender;\n        ownerAddresses[1] = owner1;\n        ownerAddresses[2] = owner2;\n    }\n\n//    function getOwner() public view returns(address) {\n//        return owner;\n//    }\n//\n//    //TODO: write explainer on the following mapping\n//    mapping(bytes32 => mapping (address => address)) public positionContractAddresses;\n//\n//    // userAddr => shortRepAddr\n//    mapping (address => address) public REP;\n//    mapping (address => address) public ZRX;\n//\n//    function setFactoryLogicAddress(address newAddress) public {\n//        require(ownerAddresses[0] == msg.sender || ownerAddresses[1] == msg.sender || ownerAddresses[2] == msg.sender);\n//        //TODO: better security practices required than the above\n//        factoryLogicAddress = newAddress;\n//    }\n//\n////    // returns \"REP1, \"REP2 ...\"\n////    function getPositionNames () {}\n////\n////    // All the Set and Add functions can only be called by the factory logic? contract\n////    function updateUserAddress(i, val){}\n//\n//    function addUser(address newAddress) public {\n//        require(factoryLogicAddress == msg.sender);\n//        //TODO: ensure push actually works\n//        userAddresses.push(newAddress);\n//    }\n//\n//    function addTokenAddress(address newAddress) public {\n//        require(factoryLogicAddress == msg.sender);\n//        tokenAddresses.push(newAddress);\n//    }\n//\n//    function updateTokenAddress(uint256 index, address newAddress) public {\n//        require(factoryLogicAddress == msg.sender);\n//        tokenAddresses[index] = newAddress;\n//    }\n//\n//    function addcTokenAddress(address newAddress) public {\n//        require(factoryLogicAddress == msg.sender);\n//        ctokenAddresses.push(newAddress);\n//    }\n//\n//    function updatecTokenAddress(uint256 index, address newAddress) public {\n//        require(factoryLogicAddress == msg.sender);\n//        ctokenAddresses[index] = newAddress;\n//    }\n//\n//    function addExchangeAddress(address newAddress) public {\n//        require(factoryLogicAddress == msg.sender);\n//        exchangeAddresses.push(newAddress);\n//    }\n//\n//    function updateExchangeAddress(uint256 index, address newAddress) public {\n//        require(factoryLogicAddress == msg.sender);\n//        exchangeAddresses[index] = newAddress;\n//    }\n//\n////    function addPositionName(newKey) {\n////        require(factoryLogicAddress == msg.sender);\n////        exchangeAddresses[index] = newAddress;\n////    }\n//\n//    function addNewTokenToPositionContracts (address tokenAddr, address cTokenAddr, address exchangeAddr, bytes32 positionKey) public {\n//    }\n//\n//    function addNewPositionContract(uint256 positionIndex, address userAddress, address contractAddress) public {\n//    // ensure position key Exists first at that index\n//    }\n}",
  "sourcePath": "/Users/zubinkoticha/WebstormProjects/Truffled/contracts/FactoryStorage.sol",
  "compiler": {
    "name": "solc",
    "version": "0.5.8+commit.23d335f2.Emscripten.clang"
  },
  "schemaVersion": "3.0.10",
  "updatedAt": "2019-05-31T05:10:47.601Z",
  "devdoc": {
    "methods": {}
  },
  "userdoc": {
    "methods": {}
  }
}