{
  "contractName": "FactoryStorage",
  "abi": [
    {
      "constant": true,
      "inputs": [
        {
          "name": "",
          "type": "uint256"
        }
      ],
      "name": "ownerAddresses",
      "outputs": [
        {
          "name": "",
          "type": "address"
        }
      ],
      "payable": false,
      "stateMutability": "view",
      "type": "function"
    },
    {
      "constant": true,
      "inputs": [],
      "name": "factoryLogicAddress",
      "outputs": [
        {
          "name": "",
          "type": "address"
        }
      ],
      "payable": false,
      "stateMutability": "view",
      "type": "function"
    },
    {
      "constant": true,
      "inputs": [
        {
          "name": "",
          "type": "uint256"
        }
      ],
      "name": "userAddresses",
      "outputs": [
        {
          "name": "",
          "type": "address"
        }
      ],
      "payable": false,
      "stateMutability": "view",
      "type": "function"
    },
    {
      "inputs": [
        {
          "name": "owner1",
          "type": "address"
        },
        {
          "name": "owner2",
          "type": "address"
        }
      ],
      "payable": false,
      "stateMutability": "nonpayable",
      "type": "constructor"
    },
    {
      "constant": false,
      "inputs": [
        {
          "name": "newAddress",
          "type": "address"
        }
      ],
      "name": "setFactoryLogicAddress",
      "outputs": [],
      "payable": false,
      "stateMutability": "nonpayable",
      "type": "function"
    }
  ],
  "bytecode": "0x608060405234801561001057600080fd5b506040516040806105338339810180604052604081101561003057600080fd5b81019080805190602001909291908051906020019092919050505033600160006003811061005a57fe5b0160006101000a81548173ffffffffffffffffffffffffffffffffffffffff021916908373ffffffffffffffffffffffffffffffffffffffff16021790555081600180600381106100a757fe5b0160006101000a81548173ffffffffffffffffffffffffffffffffffffffff021916908373ffffffffffffffffffffffffffffffffffffffff1602179055508060016002600381106100f557fe5b0160006101000a81548173ffffffffffffffffffffffffffffffffffffffff021916908373ffffffffffffffffffffffffffffffffffffffff16021790555050506103ee806101456000396000f3fe608060405234801561001057600080fd5b506004361061004c5760003560e01c80630f310b171461005157806338d27245146100bf5780634809636514610103578063502c9bd51461014d575b600080fd5b61007d6004803603602081101561006757600080fd5b81019080803590602001909291905050506101bb565b604051808273ffffffffffffffffffffffffffffffffffffffff1673ffffffffffffffffffffffffffffffffffffffff16815260200191505060405180910390f35b610101600480360360208110156100d557600080fd5b81019080803573ffffffffffffffffffffffffffffffffffffffff1690602001909291905050506101ee565b005b61010b610361565b604051808273ffffffffffffffffffffffffffffffffffffffff1673ffffffffffffffffffffffffffffffffffffffff16815260200191505060405180910390f35b6101796004803603602081101561016357600080fd5b8101908080359060200190929190505050610386565b604051808273ffffffffffffffffffffffffffffffffffffffff1673ffffffffffffffffffffffffffffffffffffffff16815260200191505060405180910390f35b600181600381106101c857fe5b016000915054906101000a900473ffffffffffffffffffffffffffffffffffffffff1681565b3373ffffffffffffffffffffffffffffffffffffffff16600160006003811061021357fe5b0160009054906101000a900473ffffffffffffffffffffffffffffffffffffffff1673ffffffffffffffffffffffffffffffffffffffff1614806102b057503373ffffffffffffffffffffffffffffffffffffffff166001806003811061027657fe5b0160009054906101000a900473ffffffffffffffffffffffffffffffffffffffff1673ffffffffffffffffffffffffffffffffffffffff16145b8061031557503373ffffffffffffffffffffffffffffffffffffffff1660016002600381106102db57fe5b0160009054906101000a900473ffffffffffffffffffffffffffffffffffffffff1673ffffffffffffffffffffffffffffffffffffffff16145b61031e57600080fd5b806000806101000a81548173ffffffffffffffffffffffffffffffffffffffff021916908373ffffffffffffffffffffffffffffffffffffffff16021790555050565b6000809054906101000a900473ffffffffffffffffffffffffffffffffffffffff1681565b6004818154811061039357fe5b906000526020600020016000915054906101000a900473ffffffffffffffffffffffffffffffffffffffff168156fea165627a7a723058204fb0231b3c3c03a83e636d5370680efd42c828fa0914174ba8ef144996c67f2b0029",
  "source": "pragma solidity ^0.5.8;\n\ncontract FactoryStorage {\n\n////    struct Trade? {\n////        address exchangeContract?;\n////        address xyz;\n////    }\n////TODO: think about - using SafeMath for uint;\n////TODO: add events\n////uint256 public constant DECIMALS = 18;\n//\n    address public factoryLogicAddress;\n//\n//    //TODO: is the following how you declare arrays properly?\n    address[3] public ownerAddresses;\n    address[] public userAddresses;\n//    address[] public tokenAddresses;\n//    //TODO: figure out camelcase for the following\n//    address[] public ctokenAddresses;\n//    address[] public exchangeAddresses;\n\n    constructor(address owner1, address owner2) public {\n        ownerAddresses[0] = msg.sender;\n        ownerAddresses[1] = owner1;\n        ownerAddresses[2] = owner2;\n    }\n//\n//    //TODO: write explainer on the following mapping\n//    mapping(bytes32 => mapping (address => address)) public positionContractAddresses;\n//\n//    // userAddr => shortRepAddr\n//    mapping (address => address) public REP;\n//    mapping (address => address) public ZRX;\n//\n    function setFactoryLogicAddress(address newAddress) public {\n        require(ownerAddresses[0] == msg.sender || ownerAddresses[1] == msg.sender || ownerAddresses[2] == msg.sender);\n        //TODO: better security practices required than the above\n        factoryLogicAddress = newAddress;\n    }\n//\n////    // returns \"REP1, \"REP2 ...\"\n////    function getPositionNames () {}\n////\n////    // All the Set and Add functions can only be called by the factory logic? contract\n////    function updateUserAddress(i, val){}\n//\n//    function addUser(address newAddress) public {\n//        require(factoryLogicAddress == msg.sender);\n//        //TODO: ensure push actually works\n//        userAddresses.push(newAddress);\n//    }\n//\n//    function addTokenAddress(address newAddress) public {\n//        require(factoryLogicAddress == msg.sender);\n//        tokenAddresses.push(newAddress);\n//    }\n//\n//    function updateTokenAddress(uint256 index, address newAddress) public {\n//        require(factoryLogicAddress == msg.sender);\n//        tokenAddresses[index] = newAddress;\n//    }\n//\n//    function addcTokenAddress(address newAddress) public {\n//        require(factoryLogicAddress == msg.sender);\n//        ctokenAddresses.push(newAddress);\n//    }\n//\n//    function updatecTokenAddress(uint256 index, address newAddress) public {\n//        require(factoryLogicAddress == msg.sender);\n//        ctokenAddresses[index] = newAddress;\n//    }\n//\n//    function addExchangeAddress(address newAddress) public {\n//        require(factoryLogicAddress == msg.sender);\n//        exchangeAddresses.push(newAddress);\n//    }\n//\n//    function updateExchangeAddress(uint256 index, address newAddress) public {\n//        require(factoryLogicAddress == msg.sender);\n//        exchangeAddresses[index] = newAddress;\n//    }\n//\n////    function addPositionName(newKey) {\n////        require(factoryLogicAddress == msg.sender);\n////        exchangeAddresses[index] = newAddress;\n////    }\n//\n//    function addNewTokenToPositionContracts (address tokenAddr, address cTokenAddr, address exchangeAddr, bytes32 positionKey) public {\n//    }\n//\n//    function addNewPositionContract(uint256 positionIndex, address userAddress, address contractAddress) public {\n//    // ensure position key Exists first at that index\n//    }\n}",
  "sourcePath": "/Users/zubinkoticha/WebstormProjects/Truffled/contracts/FactoryStorage.sol",
  "compiler": {
    "name": "solc",
    "version": "0.5.8+commit.23d335f2.Emscripten.clang"
  },
  "schemaVersion": "3.0.10",
  "updatedAt": "2019-05-31T05:59:52.735Z",
  "devdoc": {
    "methods": {}
  },
  "userdoc": {
    "methods": {}
  }
}