{
  "contractName": "FactoryStorage",
  "abi": [
    {
      "constant": true,
      "inputs": [
        {
          "name": "",
          "type": "uint256"
        }
      ],
      "name": "ownerAddresses",
      "outputs": [
        {
          "name": "",
          "type": "address"
        }
      ],
      "payable": false,
      "stateMutability": "view",
      "type": "function"
    },
    {
      "constant": true,
      "inputs": [],
      "name": "owner",
      "outputs": [
        {
          "name": "",
          "type": "address"
        }
      ],
      "payable": false,
      "stateMutability": "view",
      "type": "function"
    },
    {
      "inputs": [],
      "payable": false,
      "stateMutability": "nonpayable",
      "type": "constructor"
    },
    {
      "constant": true,
      "inputs": [],
      "name": "getOwner",
      "outputs": [
        {
          "name": "",
          "type": "uint256"
        }
      ],
      "payable": false,
      "stateMutability": "view",
      "type": "function"
    }
  ],
  "bytecode": "0x608060405234801561001057600080fd5b50336000806003811061001f57fe5b0160006101000a81548173ffffffffffffffffffffffffffffffffffffffff021916908373ffffffffffffffffffffffffffffffffffffffff16021790555033600360006101000a81548173ffffffffffffffffffffffffffffffffffffffff021916908373ffffffffffffffffffffffffffffffffffffffff1602179055506101aa806100ae6000396000f3fe608060405234801561001057600080fd5b50600436106100415760003560e01c80630f310b1714610046578063893d20e8146100b45780638da5cb5b146100d2575b600080fd5b6100726004803603602081101561005c57600080fd5b810190808035906020019092919050505061011c565b604051808273ffffffffffffffffffffffffffffffffffffffff1673ffffffffffffffffffffffffffffffffffffffff16815260200191505060405180910390f35b6100bc61014f565b6040518082815260200191505060405180910390f35b6100da610158565b604051808273ffffffffffffffffffffffffffffffffffffffff1673ffffffffffffffffffffffffffffffffffffffff16815260200191505060405180910390f35b6000816003811061012957fe5b016000915054906101000a900473ffffffffffffffffffffffffffffffffffffffff1681565b60006003905090565b600360009054906101000a900473ffffffffffffffffffffffffffffffffffffffff168156fea165627a7a7230582042cf95917c7d13067d8942abffd022276a66987bf44d2662ebbf554dd698ec750029",
  "source": "pragma solidity ^0.5.8;\n\ncontract FactoryStorage {\n\n////    struct Trade? {\n////        address exchangeContract?;\n////        address xyz;\n////    }\n////TODO: think about - using SafeMath for uint;\n////TODO: add events\n////uint256 public constant DECIMALS = 18;\n//\n//    address public factoryLogicAddress;\n//\n//    //TODO: is the following how you declare arrays properly?\n    address[3] public ownerAddresses;\n    address public owner;\n//\n//    address[] public userAddresses;\n//    address[] public tokenAddresses;\n//    //TODO: figure out camelcase for the following\n//    address[] public ctokenAddresses;\n//    address[] public exchangeAddresses;\n\n//    constructor(address owner1, address owner2) public {\n    constructor() public {\n        ownerAddresses[0] = msg.sender;\n//        ownerAddresses[1] = owner1;\n//        ownerAddresses[2] = owner2;\n        owner = msg.sender;\n    }\n\n    function getOwner() public view returns(uint256) {\n        return uint256(3);\n    }\n//\n//    //TODO: write explainer on the following mapping\n//    mapping(bytes32 => mapping (address => address)) public positionContractAddresses;\n//\n//    // userAddr => shortRepAddr\n//    mapping (address => address) public REP;\n//    mapping (address => address) public ZRX;\n//\n//    function setFactoryLogicAddress(address newAddress) public {\n//        require(ownerAddresses[0] == msg.sender || ownerAddresses[1] == msg.sender || ownerAddresses[2] == msg.sender);\n//        //TODO: better security practices required than the above\n//        factoryLogicAddress = newAddress;\n//    }\n//\n////    // returns \"REP1, \"REP2 ...\"\n////    function getPositionNames () {}\n////\n////    // All the Set and Add functions can only be called by the factory logic? contract\n////    function updateUserAddress(i, val){}\n//\n//    function addUser(address newAddress) public {\n//        require(factoryLogicAddress == msg.sender);\n//        //TODO: ensure push actually works\n//        userAddresses.push(newAddress);\n//    }\n//\n//    function addTokenAddress(address newAddress) public {\n//        require(factoryLogicAddress == msg.sender);\n//        tokenAddresses.push(newAddress);\n//    }\n//\n//    function updateTokenAddress(uint256 index, address newAddress) public {\n//        require(factoryLogicAddress == msg.sender);\n//        tokenAddresses[index] = newAddress;\n//    }\n//\n//    function addcTokenAddress(address newAddress) public {\n//        require(factoryLogicAddress == msg.sender);\n//        ctokenAddresses.push(newAddress);\n//    }\n//\n//    function updatecTokenAddress(uint256 index, address newAddress) public {\n//        require(factoryLogicAddress == msg.sender);\n//        ctokenAddresses[index] = newAddress;\n//    }\n//\n//    function addExchangeAddress(address newAddress) public {\n//        require(factoryLogicAddress == msg.sender);\n//        exchangeAddresses.push(newAddress);\n//    }\n//\n//    function updateExchangeAddress(uint256 index, address newAddress) public {\n//        require(factoryLogicAddress == msg.sender);\n//        exchangeAddresses[index] = newAddress;\n//    }\n//\n////    function addPositionName(newKey) {\n////        require(factoryLogicAddress == msg.sender);\n////        exchangeAddresses[index] = newAddress;\n////    }\n//\n//    function addNewTokenToPositionContracts (address tokenAddr, address cTokenAddr, address exchangeAddr, bytes32 positionKey) public {\n//    }\n//\n//    function addNewPositionContract(uint256 positionIndex, address userAddress, address contractAddress) public {\n//    // ensure position key Exists first at that index\n//    }\n}",
  "sourcePath": "/Users/zubinkoticha/WebstormProjects/Truffled/contracts/FactoryStorage.sol",
  "compiler": {
    "name": "solc",
    "version": "0.5.8+commit.23d335f2.Emscripten.clang"
  },
  "schemaVersion": "3.0.10",
  "updatedAt": "2019-05-31T02:54:33.100Z",
  "devdoc": {
    "methods": {}
  },
  "userdoc": {
    "methods": {}
  }
}